:020000040800F2
:1000000000040020C1010008213700082137000842
:100010002137000821370008213700082137000860
:100020002137000821370008213700085112000845
:100030002137000821370008213700082137000840
:100040002137000821370008213700082137000830
:100050002137000821370008213700082137000820
:1000600021370008213700082137000891220008B5
:1000700041220008F1210008A121000861210008A7
:1000800011210008C120000821370008213700088D
:1000900021370008213700082137000821370008E0
:1000A00021370008213700082137000821370008D0
:1000B000E13900082137000821370008D122000863
:1000C000C13A00082137000821370008213700080D
:1000D00021370008213700082137000821370008A0
:1000E0002137000821370008213700082137000890
:1000F0002137000821370008213700087120000847
:10010000213700082137000821370008213700086F
:10011000213700082137000821370008213700085F
:1001200031200008E11F0008911F0008411F00084E
:10013000011F000821370008213700082137000877
:10014000213700082137000821370008C13B00088B
:10015000B11E0008611E0008111E000821370008AA
:10016000213700082137000821370008213700080F
:1001700021370008213700082137000821370008FF
:1001800021370008213700082137000821370008EF
:1001900021370008213700082137000821370008DF
:1001A00021370008213700082137000821370008CF
:1001B00021370008213700082137000821370008BF
:1001C00072B6374880F3098836484EF60851CEF2A9
:1001D0000001086040F20000CCF200004EF63471DD
:1001E000CEF200010860BFF34F8FBFF36F8F40F274
:1001F0000000C0F2F0004EF68851CEF20001086017
:10020000BFF34F8FBFF36F8F4FF00000E1EE100A86
:100210004EF63C71CEF200010860062080F314888F
:10022000BFF36F8F03F0BCFA03F0AAFE1E481F490C
:100230001F4A91423CBF41F8040BFAE71D49184A96
:1002400091423CBF41F8040BFAE71B491B4A1C4B87
:100250009A423EBF51F8040B42F8040BF8E7002025
:100260001849194A91423CBF41F8040BFAE703F0E0
:100270005FFA03F08DFA154C154DAC4203DA54F8D1
:10028000041B8847F9E700F0E3F8124C124DAC422A
:1002900003DA54F8041B8847F9E703F071BA000049
:1002A00000080020000000085555555500000020AA
:1002B0000004002000040020F4530008000800207F
:1002C0000808002008080020641C0020C001000865
:1002D000C0010008C0010008C00100082DE9F04F6E
:1002E0002DED108AC1F80CD0C3689D46BDEC108A74
:1002F000BDE8F08F02F064FF002383F311882846E5
:10030000A047002003F0DCF902F082FF02F028FE93
:1003100002F056FF00DFFEE7844641EA000313F0D7
:1003200003036DD1403A41D351F8043B40F8043BFC
:1003300051F8043B40F8043B51F8043B40F8043BBF
:1003400051F8043B40F8043B51F8043B40F8043BAF
:1003500051F8043B40F8043B51F8043B40F8043B9F
:1003600051F8043B40F8043B51F8043B40F8043B8F
:1003700051F8043B40F8043B51F8043B40F8043B7F
:1003800051F8043B40F8043B51F8043B40F8043B6F
:1003900051F8043B40F8043B51F8043B40F8043B5F
:1003A00051F8043B40F8043B403ABDD2303211D3FF
:1003B00051F8043B40F8043B51F8043B40F8043B3F
:1003C00051F8043B40F8043B51F8043B40F8043B2F
:1003D000103AEDD20C3205D351F8043B40F8043BFF
:1003E000043AF9D2043208D0D2071CBF11F8013BFD
:1003F00000F8013B01D30B8803806046704700BFC3
:10040000082A13D38B078DD010F003038AD0C3F1D1
:100410000403D21ADB071CBF11F8013B00F8013BB3
:1004200080D331F8023B20F8023B7BE7043AD9D372
:10043000013A11F8013B00F8013BF9D20B78037047
:100440004B7843708B7883706046704700000000E3
:10045000CD4BCE4C1A694FF0FF3100222DE9804878
:1004600019611A61586959615A61186A60F08050BF
:1004700018621A62586A59625A62196C41F08051C6
:100480001964216841F480712160196F01F4407191
:10049000B1F5007F97B003D04FF4803119671A6728
:1004A000BA49BB4C4B68BB4EBB4D002223F40073D2
:1004B0004B60104622601146144633581C6045F8C4
:1004C00031400131102900F10C004FF00003F4D14C
:1004D000DFF8F082B14EDFF8B0A2DFF8ECC2DFF84F
:1004E000ECE2AF48DFF8E8B2AE4DAF4FAF4CB049E9
:1004F0004FF0FF39C8F80890C8F80C90C6F808907B
:10050000C6F80C90DAF830806FEA58286FEA48286D
:10051000CAF83080DAF850806FEA58286FEA482825
:10052000CAF85080AAF59B3A6FF4A848AAF5D67A83
:10053000CCF80430CCF80880CCF80CA04FF6FF784B
:10054000DFF890A2CCF81480CCF820A0DFF888A2C5
:10055000CCF824A00AF12A5A0AF5B01ACCF800A067
:100560004FF4107CCEF804C0DFF870A2CEF80890EB
:100570004FF0806CCEF80CA0CEF81480CEF820C0DE
:10058000DFF85CC2DFF85CA24022CEF82420CEF86F
:1005900000C00CF1AA4CACF5430CACF62C3C43600B
:1005A000C0F80890C0F80CC04FF0C04CC0F81480E0
:1005B000C0F820C0DFF830C2C0F824C0A6F5B046AD
:1005C000DFF828C2C0F800C0DFF824C2794A73609F
:1005D000C6F80890C6F80CC040F6FF7CC6F814C0F8
:1005E0004020DFF810C233620EF5805E7362C6F8F9
:1005F00000C05360C2F80890D360C2F81480136240
:1006000053621060634ACEF80430CEF80890CEF8FA
:100610000C30CEF81480CEF82030CEF82430CEF84E
:10062000003002F1480E644ADFF8CCC1536006F591
:10063000A056C2F80890D360C2F8148013625362C7
:100640001360AEF14802CAF8043005F10C00CAF894
:100650000890CAF80C30CAF81480CAF82030CAF8DA
:100660002430CAF800307360AAF56C4AC6F80890C6
:100670000EF11809F360C6F81480336202F18408A1
:100680006B6073626B6133604C4EC5F834C0C5F863
:1006900030E0DFF868C1CBF81CA00BF10C0ECBF8F2
:1006A0002090CBF8248002F1240902F13008CBF825
:1006B0002860CBF82CC007F10C06CBF80CE0CBF887
:1006C00010E0E8602861AAF5784A0120DFF830C11F
:1006D000DFF830E1CBF80430CBF80830CBF8143039
:1006E0007B60BB607B61C7F81CA0C7F82090C7F88F
:1006F0002480FE603E61EB61EA628BF80000387096
:1007000002F1540BDFF80081C7F828C001F10C0694
:1007100028700AF5806AC7F82CE04FF0A04904F170
:1007200070074B608B604B610A626360E361A36298
:100730002362E36263622363238163816366A3664A
:10074000C4F85880C1F828C00870C1F82CE0C1F87E
:1007500024B0C1F81CA02070C4F85490CE600E6183
:100760003B4604F51078552203F8012B4345FBD393
:10077000054A134E136CDFF894A0766043F0010332
:100780001364DAF8082043E00038024000700040AB
:10079000281C0020E84B0008A81B00200064024031
:1007A000000802402C1C002058080020E010002007
:1007B00088080020001002400018024016000106C0
:1007C00020130020006002400000024000040240AC
:1007D000280800200000565500AA0A00154551556A
:1007E00080200800001C0240000606000180200254
:1007F00055505500000100550054004046000106C8
:100800001600010046000100F44C0008002004E03E
:10081000CA4936614FF0804342F0010E4FF0FF3C71
:1008200042F2CF00CAF808E00022986206F14009BF
:10083000C3F82CC04FF0010AC6F824C04FF0800E58
:100840004FF0805006F11C0C4FF00F0BC6F83C9097
:100850007661A6F838B091469A61B2605A63B26286
:10086000DA605A60A6F83AE0C3F814A0C6F81CC0D3
:10087000C3F800A0C6F820C081F81CE3C1F88001CD
:100880000860366009F1010906EB0913B9F1800F20
:1008900093F83020AA496FF3020283F83020F1D197
:1008A0004FF0000A4FF0FF3E0022002306A8C1F8D7
:1008B00030A0C1F834A0C1F884A8CDE90A23029180
:1008C000CDF818E0CDF81CA0CDF820A0CDF824A0DC
:1008D00003F0EEFD06A802F00BF99A4B9A48186057
:1008E000DFF8A8E299489A4ADFF8A4C2CEF800C01F
:1008F000984BD0F80CC01360DFF898E20299C2F868
:1009000018A04FF6FF030CEA030343EA0E0E02F1B0
:100910001003D1F814B013615361089BC1F84898D3
:10092000C1F87C98C1F884384FF0010C01F50469D6
:10093000894B81F861A8C1F874A881F862C8C1F830
:1009400078A8C1F854B8C1F85838C1F85018CBF895
:100950001090DFF844B2C0F80CE0DBF80C30DFF8A0
:100960003CE2C2F808A043F08073CBF80C30DEF80C
:100970000030DFF82CB2C2F80CA043EA0C0301F6F9
:100980006C0201F6680AC1F86C28C1F87028C1F839
:100990001490C1F8189081F860C8C1F868A8C1F82F
:1009A0005CB8CEF800300B6B4FF0100E202280F8B0
:1009B0001FE080F822200BB94B6B13B1674802F09F
:1009C0002FF983F3118862B6654802F029FD10B152
:1009D000644802F025F9624903465522CA5401339E
:1009E000B3F5B07FFAD14FF0200B8BF3118802F0F2
:1009F0000FFCDFF8B0915C4802F07AF903F018FDC3
:100A000002F0EEFB4946DFF8A0E15848C9F84090F3
:100A10004FF4005CAEF818C041F8040B09F10C0C5F
:100A200009F28C4E524A534BC9F83C2009F17C0024
:100A300009F521724FF0020AC9F85CE0C9F8743078
:100A400009F1440E0023C9F80410C9F80CC00121B3
:100A5000C9F810C04FF4827CC9F81830C9F87890F2
:100A6000C9F82000C9F81C00C9F83000C9F82420D2
:100A7000C9F85820C9F85420C9F86820C9F844E0DA
:100A8000C9F848E0C9F83430C9F83830C9F86C30D2
:100A9000C9F8703089F8081089F8141089F84C10DA
:100AA000C9F828C0C9F860C0C9F82CA0C9F850A07E
:100AB000C9F864A08BF3118802F0AAFB99F80830FA
:100AC000013B012B02D92C4802F0AAF82B4BC9F8A4
:100AD0008C34C4F81C90C4F82890C4F8209089F88D
:100AE00008A002F06DFB3368154AB34204D0926946
:100AF0009B6892689A421DD34FF0000B8BF31188CC
:100B0000616D1F4B8A6B039322F400228A6343F6C4
:100B1000982002F0ADFD202080F31188029002F0B1
:100B200077FB21780298039B4A1E012A3ED915487B
:100B300002F076F8144802F073F800BF00E100E01C
:100B4000201300205C0D0020681C002000ED00E058
:100B500008080020811D0008B84C0008D04C00088F
:100B6000380F0020004D0008904B0008A84B0008EB
:100B7000E1150008211600084C4D0008E04B000864
:100B8000E0100020C84B00082C4D0008B8080020D9
:100B9000000002200003FA05F0ED00E0001000E084
:100BA00000040020CC080020000C0240BC4AC3F81E
:100BB0000CB00129C3F810B0C3F814B0C3F818B0D2
:100BC0005A60D3F854A020D00223237002F0F8FA20
:100BD0003368B44AB34205D092699B6892689A42DE
:100BE000C0F0A480002383F31188616D2A788B6B99
:100BF000501E43F4002301288B6340F29A80052A9B
:100C000000F09780A84802F00BF8A84A0291D2F8A9
:100C100034C0DFF8D4E24CF0800CC2F834C0D2F813
:100C200014C04CF0800CC2F814C0C2F814B0E0221A
:100C30008EF843230822CEF88821CEF808209C4A5B
:100C4000CAF80C20DFF8A4E2CAF800E84FF0C00CA4
:100C50004FF45022C3F860B0CAF800BECAF800C012
:100C6000CAF8382001F0CCFF0299CAF81010DAF85F
:100C70001030DB07FBD4122001F0C2FFDAF810308D
:100C8000002BFBDAA36DD4F854E0D3F808B00023AE
:100C90001A46CAF8083019464FF0FF3C0EEB4213D3
:100CA00001325A45C3F800194FF00000C3F810197B
:100CB000C3F808C9C3F8001BC3F8101BC3F808CB5E
:100CC000ECD96368DB684FF00112CEF81C28CAF833
:100CD0001008CAF81408CAF81C08002B00F0688233
:100CE000744BCAF81830A36EDFF804B24FF0FF322D
:100CF000CAF814209BB97049704B0691022206A8CD
:100D000009920A930797CDF82080CDF82CB001F016
:100D1000EFFF02F07DF9CBF8680002F049F9DAF84C
:100D2000083043F00103CAF808304DE7644801F089
:100D300077FF202383F3118802F06AFA95F8008088
:100D4000604B6B60B8F1010F6C6B5F4F00F0E2819C
:100D5000E96A68682B6BD1F800C04268D3F800A03C
:100D6000DFF890E1077A696B04F11003CCF80830E2
:100D700002F1FF3CCAF808304FF4004800234FF45A
:100D8000106AF445C4F800802360C4F804A000F29F
:100D9000B281D1F80480DFF860C14FF6C07E08EA66
:100DA0000E0EC1F804E0D1F804E062454EF02A0EC0
:100DB000C1F804E000F37F81012F40F09C815200D4
:100DC000424FB7FBF2F302FB03F2BF1A002F40F0D1
:100DD00092819AB2032A40F28E812B23B2F5805F72
:100DE0000B62C2F30B0380F08681CB6102780B6843
:100DF000022A9BB200F0D681032A00F0CE81012A9C
:100E000002D123F00A039BB20B60236843F0010375
:100E1000236002232B7002F0D3F93368214AB342D6
:100E200004D092699B6892689A4235D3002585F375
:100E300011884FF4807003F0CBFB4FF4007003F087
:100E4000C7FB4FF47A7002F013FC214B214F4FF493
:100E5000005268241A83204606AB752101228DF8C2
:100E600018503C7003F0BCFD002800F099819DF8FB
:100E70001830194DC3F345032B702B78342B00F039
:100E8000E480134B4FF480421A83144802F0C8FAEE
:100E9000A0B3134801F0C4FE124801F0C1FE00BF28
:100EA000A84C000820130020204D00080038024004
:100EB00040140040083C30C0D84C0008C141000834
:100EC000D44B0008844B00082C1C002080DE8002DC
:100ED000000C0240600D0020BC080020680D0020BE
:100EE0000C4D00089053000800E100E003002002D0
:100EF000E0100020FF083D00A0860100AE49034637
:100F00005522CA540133B3F5E87FAB4CF9D1202305
:100F100083F3118802F07CF904F592787269A7498D
:100F2000C4F8948104F5C4734FF000084FF0020C2C
:100F30004FF0010EC4F86411A148DFF8B0A284F8A4
:100F4000A8C1812184F8AAE1C4F8A001C4F89C21B9
:100F5000C4F89011C4F8C411C4F8A44104F5D871C0
:100F6000C4F89861C4F884A1C4F8688184F8A981A0
:100F7000C4F8C081C4F8BC81136104F5DA72184664
:100F8000C4F8B011C4F8B421C4F8B821736103F0F7
:100F90004FFA02F025F9AA238DF819808DF81A80EE
:100FA0008DF81830032205923878864B3B210E22AB
:100FB00003F016FD6A7829786B7995F804A095F806
:100FC00003E0687A95F802B095F80880AE7A2C7B39
:100FD00042EA0121EA7A43EA0A2A6B7B4EEA0B2BAA
:100FE00040EA082842EA062606A805AA09B243EA0A
:100FF000042403F005FC06A80FFA8BF105AA03F000
:10100000FFFB06A80FFA8AF105AA03F0F9FB06A870
:101010000FFA88F105AA03F0F3FB06A831B205AA7E
:1010200003F0EEFB06A821B205AA03F0E9FB059A3E
:10103000D9F800306448D11E8DF81A101B6806A933
:101040009847C82002F014FBACE76B21072201236C
:10105000387803F01DFD6A2100220123387803F05F
:1010600017FD4FF47A7002F003FB01230024387857
:1010700000936B210222032303F0DAFC38780094FA
:101080001B210422022303F0D3FC387800941C2196
:101090000422022303F0CCFC234606226B2138787D
:1010A00003F0F6FC4FF47A7002F0E2FA474B4FF48B
:1010B00080521A83E9E6DFF838E172453FF795AED2
:1010C000BB1E012B17D8022F18D0192303FB02F2E5
:1010D0003F4FB7FBF2F302FB03F2BF1A5FB99AB2BC
:1010E0004FF4804313436FEA43436FEA53430D22A7
:1010F0009BB20A6279E6374801F092FD02EB4202A8
:10110000334BB3FBF2F702FB07F29B1A002BF2D131
:10111000BAB2E7E7DFF8DCA0F86ADAF820302E4947
:1011200043F400134FF0000ECAF8203040F256424C
:10113000CAF820E040F21643BA627B6203F0E8F995
:1011400040BB386B254903F0E3F918BB796ABA6AEA
:10115000DAF84000224B41F0007142F000724FF08B
:10116000500E4FF0004C40F4001041F4403142F476
:101170004032CAF84000796283F81FE3BA62C3F8CC
:1011800080C1C3F800C083F820E3C3F88481C3F8AA
:101190000480DDE5134801F043FD43F00A0333E624
:1011A000084D6AE623F008039BB243F002032BE6E6
:1011B0000D4BCAF8183096E5680D0020E13700089D
:1011C000E44C0008BC080020CC080020000C0240C1
:1011D00080DE8002384D000831240008F123000829
:1011E00000E100E0744B0008003C30C0F50200084C
:1011F000801A0600003802400000000000000000D5
:10120000704700BF00000000000000000000000068
:1012100090F8443003F06003202B01D00020704789
:1012200090F84530212B03D0222B09D0202BF5D16B
:10123000064B836307220023C263036401207047C7
:1012400000238363C3630364012070470008002008
:10125000064A536823F001035360EFF309836833B0
:1012600083F30988002383F31188704730EF00E08F
:1012700070B50D46044601F0F3FCD5B1E369043BBB
:101280009D4216D8E368A3B12169A0690D60E369A6
:10129000E2680B448342236124BF636A2361013AFD
:1012A000236BE2600022A26233B12046BDE87040A9
:1012B0001847024801F0B4FC70BD00BF5C4E000846
:1012C00010B5044601F0CCFCE3689BB104F11400B6
:1012D0000BC803448B42E268636124BF636A6361A5
:1012E000013A236BE2600022A26233B12046BDE8DE
:1012F00010401847014801F093FC10BD444E00080F
:1013000070B504460D46154E01F0AAFC0BE0B3691A
:1013100062685A601C60042013602946636001F013
:1013200047FD002818DBE36833B9237A73B9002D31
:10133000EDD14FF0FF3070BDE36853B12269E3692E
:10134000111D1344A162E362002070BD6FF0010023
:1013500070BD034801F064FC70BD00BF2013002085
:10136000FC4D00080000000000000000000000002C
:1013700070B504460D46154E01F072FC0BE0B369E2
:1013800062685A601C60042013602946636001F0A3
:101390000FFD002818DBE36833B9237A73B9002DF9
:1013A000EDD14FF0FF3070BDE36853B163691A6847
:1013B00004331A44E262A362002070BD6FF00100A2
:1013C00070BD034801F02CFC70BD00BF201300204D
:1013D000184E00080000000000000000000000009F
:1013E0002DE9F84304460E46154601F071FC1CB188
:1013F00015B12378042B02D05D4801F011FC0FFADF
:1014000086F804EB8807F9680029F5D1FD60686962
:1014100010B1102203F060FBA86918B1002110225E
:1014200003F05AFBFB68656D1A6802F00302022A9A
:101430005DD0032A5ED04F484F49012A0CBF814638
:10144000894672019969A8184FF0000EC0F810EB98
:10145000002955D0588A06F15801490149EA00008F
:10146000685006F1100ED5F81C08012101FA0EF1A2
:101470000143C5F81C182A4459690020C2F8100914
:10148000002951D09A8B198AD4F85CE0012A4FEADE
:10149000910388BF534303EB0E01A26DE1655268CF
:1014A00091422AD806F13F00626D05EB8000B10140
:1014B0004EEA034341F0200143601161136999062C
:1014C000FCD4122001F09CFBFB681A8A06F1480349
:1014D0005B0142EA865242EA0902EA500123D5F84A
:1014E0001C28B3401343C5F81C38BDE8F883DFF867
:1014F0009490A6E7DFF89090A3E7204801F090FBD6
:1015000005EB481106F1100ED1F8000B20F4004055
:10151000C1F8000BD5F81C08012101FA0EF120EAF0
:101520000101C5F81C18A6E706F13F03626D1448D7
:1015300005EB8303B10141F020015860116113698B
:101540009B06FCD405EB4818122001F059FBD8F893
:10155000002922F40042C8F80029D5F81C280123EC
:10156000B34022EA0303C5F81C38BDE8F88300BF86
:101570008C4D00080080041000800010F452000818
:10158000000400020080081000800C100000000021
:10159000F8B5D0F88C6437683B78042B01D0012073
:1015A000F8BD037A022BFAD132797B89012505FA3D
:1015B00002F21A42F3D1044601F08AFBE269236A7F
:1015C0009A4209D00432EAD0384671794FF48073D8
:1015D00000F0D6FF0020F8BDA369002BDFD1F1E7B2
:1015E000406BFFF7D5BF00BF000000000000000007
:1015F00038B504460D4601F06BFB636922699A42D7
:1016000004D0184650F8043B2B6038BDE268002A2D
:10161000F7D0002038BD00BF00000000000000002F
:1016200010B5446BD4F88C2413681978042982B05F
:1016300001D002B010BD217A0229FAD111791A899C
:1016400001238B401342F4D104F1440001A9FFF7B8
:10165000CFFF02460028ECD0D4F88C14019B086818
:10166000097900F01DFFE4E7000000000000000021
:1016700008B54FF08043DA68920701D5586308BD7A
:10168000014801F0CDFA00BFE44D00080000000061
:10169000202383F31188124B5B6813F4006302D19B
:1016A00083F311887047F1EE103AEFF309830D4A86
:1016B0004FF08071D26843F8082C43F84C1CA3F11A
:1016C000680282F30988084A1168926989689268F9
:1016D00091428CBF054A064A43F8502C704700BF20
:1016E00000ED00E030EF00E02013002009030008C7
:1016F00014030008000000000000000000000000CB
:101700002DE9F8430646884601F0E2FA002E39D06A
:101710003468A64229D0002702E02468A64224D0DB
:10172000E36848EA0303E360B8F1000F02D02269DE
:101730001342F2D06568D4F8089001F0C9FAF5B107
:101740006B6B95F8202049EA03030A2A6B630ED0DD
:101750000B2AE2D16A6A13409A42DED16F622846B0
:1017600001F056FC2468A642DAD1BDE8F8836A6A23
:101770001342D2D06F62284601F04AFCF2E70348D8
:1017800001F04EFA024801F04BFA00BF344E000857
:10179000A04D000800000000000000000000000054
:1017A000093138B550F82140002C3DD0202383F377
:1017B000118801F0B5FC201D0421FFF7A1FFD4F82A
:1017C0008C241368527903EB8203DB689B695D68A4
:1017D00001F07EFA2DB3A36A043B9D4221D8E26951
:1017E000236A9A421AD01560A36AA169606A1344F9
:1017F00001318342A161E361E06801D3236BE361BE
:1018000004F10C03984214D00268E26090F82010B2
:101810005360042909D00B4801F002FAA369002B98
:10182000E1D0094801F0FCF938BD0023436201F022
:10183000EFFB2046FFF7ACFE01F05AFC002383F3D8
:10184000118838BDC4530008D04D000800000000C6
:101850002DE9F04100EB810382B09C6914B30E4680
:101860000546202383F3118800EB810701F058FC23
:10187000201D0821FFF744FFFB685B691B68A3B9C3
:1018800004F14408404601A9FFF7B2FE024668B3DE
:1018900028463146019B00F003FE01F029FC00239D
:1018A00083F3118802B0BDE8F08101F011FAA06D58
:1018B000636D83422AD0236E226DE16D03440132B1
:1018C0008B422265A365606C01D3A36EA36504F10E
:1018D00044084045D6D00368636490F82020C3F8DC
:1018E0000480042A18D00F4801F09AF9FB685A695D
:1018F0001268002AD1D01B8A013B1340CDD131465A
:10190000284605F1440200F0CBFDC6E7236D002B0D
:10191000D1D0054801F084F90023436201F078FB3F
:10192000B0E700BFC4530008B84D00080000000035
:101930002DE9F04F164685B0002A00F085801F463D
:1019400082468B46202383F3118801F061FC4FF01F
:1019500080434A4D5A6ADAF828000393BB18029371
:101960007B1E0193A846002400285AD0DAF82C30B8
:10197000C4EB06091B1A994528BF9946B9F1400FD7
:1019800027D90BF14003DBF800E0DBF80410DBF8AB
:101990000820DBF80CC0C0F80CC00BF1100B9B4505
:1019A000C0F800E04160826000F11000EBD1DAF88D
:1019B0002830DAF82C2040339A4204F14004CAF867
:1019C000283015D8DAF81C1050460439FFF750FCBF
:1019D0000EE059464A46FEF79FFCDAF82830DAF85E
:1019E0002C204B449A424C44CB44CAF82830E9D9C5
:1019F00001F0E6FB2B68AB4205D0D8F818209B68B5
:101A000092689A421DD3002383F31188B44231D2E5
:101A1000202383F3118801F0FBFBDAF8280000286B
:101A2000A4D1019B033312D8039B596A029B591A14
:101A30008F4211D35046FFF763FC68B9DAF82800EB
:101A400094E70F4801F0ECF80E4801F0E9F8504631
:101A50003946FFF755FCF0E701F0B2FB2B68074A67
:101A6000AB4204D092699B6892689A42E9D3002302
:101A700083F31188204605B0BDE8F08F20130020C5
:101A8000F04D0008684D0008000000000000000054
:101A90004430FFF74DBF00BF000000000000000011
:101AA00044304FF0FF33FFF743BF00BF000000009A
:101AB00070B5202382B004460D46164683F3118884
:101AC00001F0A6FBA36AFBB11D70A36AE26A0133B1
:101AD0009342A36212D201F073FB174B1A689A4229
:101AE00004D0996993688A689A4204D3002080F3ED
:101AF000118802B070BD114801F092F8E1692046EA
:101B00000439FFF7B5FBE6E731462046FFF7F8FB5F
:101B100008B9A36AD8E7019001F052FB064B01987F
:101B20001A689A4204D0996993688A689A42E2D303
:101B3000002383F31188DCE720130020F04D000818
:101B40004430FFF7B5BF00BF0000000000000000F8
:101B500044304FF0FF32FFF7ABBF00BF0000000082
:101B60002DE9F04F904685B0002A7BD09946044677
:101B70000E46202383F3118801F04AFB4FF0804387
:101B8000454F5A6AA16A039309EB0203029309F1D4
:101B9000FF330193BA460025002951D0E36AC5EB13
:101BA000080B5B1A9B4528BF9B46BBF1400F23D90E
:101BB00001F140023346D1F800C0D1F804E0886852
:101BC000D1F80CB0C3F80CB010319142C3F800C08A
:101BD000C3F804E0986003F11003ECD1A36AE26A51
:101BE00040339A4206F1400605F14005A3620FD842
:101BF0002046FFF765FB0BE030465A46FEF78CFBAC
:101C0000A36AE26A5B449A425D445E44A362EFD9F0
:101C100001F0D6FA3B68BB4205D0DAF818209B6881
:101C200092689A421BD3002383F3118845452FD233
:101C3000202383F3118801F0EBFAA16A0029ADD1CA
:101C4000019B033311D8039B596A029B591A89459A
:101C500010D32046FFF78CFB60B9A16A9EE70F48BE
:101C600000F0DEFF0E4800F0DBFF20464946FFF79C
:101C70007FFBF1E701F0A4FA3B68074ABB4204D0BE
:101C800092699B6892689A42E9D3002383F3118892
:101C9000284605B0BDE8F08F20130020F04D000865
:101CA000584D000800000000000000000000000087
:101CB0000C30FFF755BF00BF00000000000000001F
:101CC0000C304FF0FF33FFF74BBF00BF00000000A8
:101CD00030B5202383B004460D4683F3118801F00C
:101CE00097FAA36AEBB113F8015BE26AA36293422D
:101CF00013D201F065FA174B1A689A4204D0996919
:101D000093688A689A4205D3002383F31188284692
:101D100003B030BD104800F083FF2046FFF7D0FA33
:101D2000E7E729462046FFF723FB08B9A36ADAE76D
:101D3000019001F045FA074B01981A689A4204D0C5
:101D4000996993688A689A42E4D3002383F31188DF
:101D5000DEE700BF20130020F04D00080000000067
:101D60000C30FFF7B5BF00BF00000000000000000E
:101D70000C304FF0FF31FFF7ABBF00BF0000000099
:101D8000F8B505460C46202383F3118801F040FA8C
:101D900000F09EFF2CB3621E12EA040721D1144EFC
:101DA000144933680968013B2344644203EA040090
:101DB0002A4414400B1A9C429BBF241834603C46B2
:101DC000044601F0FDF90C4B1A689A4204D0996957
:101DD00093688A689A4207D3002383F311882046C8
:101DE000F8BD064800F01CFF054800F019FF00BFD1
:101DF0005C0D0020B808002020130020784D00085A
:101E0000704E00080000000000000000000000000C
:101E100010B50D4800F0B4FE01F052F90B4B0C4820
:101E20005968826F890D01F03D018C05DC600AB1B3
:101E3000C06F904701F02CF9034800F081FEBDE827
:101E40001040FFF725BC00BF884E00080064024028
:101E5000A81B00200000000000000000000000009F
:101E600010B50D4800F08CFE01F02AF90B4B0C4820
:101E70005968026F090C01F03D010C04DC600AB1E5
:101E8000406F904701F004F9034800F059FEBDE8A7
:101E90001040FFF7FDBB00BF7C4E0008006402400D
:101EA000A81B00200000000000000000000000004F
:101EB00010B50D4800F064FE01F002F90B4B0C4820
:101EC0005968826E890901F03D018C01DC600AB11C
:101ED000C06E904701F0DCF8034800F031FEBDE829
:101EE0001040FFF7D5BB00BFAC4F000800640240B4
:101EF000A81B0020000000000000000000000000FF
:101F000008B50C4800F03CFE01F0DAF80A4B0B482B
:101F10005968026E01F03D01D9600AB1406E9047E8
:101F200001F0B6F8034800F00BFEBDE80840FFF7EB
:101F3000AFBB00BFA04F000800640240A81B0020F8
:101F400010B50D4800F01CFE01F0BAF80B4B0C4820
:101F50001968826D890D01F03D018C059C600AB104
:101F6000C06D904701F094F8034800F0E9FDBDE82A
:101F70001040FFF78DBB00BF884F0008006402408F
:101F8000A81B00200000000000000000000000006E
:101F900010B50D4800F0F4FD01F092F80B4B0C4821
:101FA0001968026D090C01F03D010C049C600AB136
:101FB000406D904701F06CF8034800F0C1FDBDE8AA
:101FC0001040FFF765BB00BF7C4F00080064024073
:101FD000A81B00200000000000000000000000001E
:101FE00010B50D4800F0CCFD01F06AF80B4B0C4821
:101FF0001968826C890901F03D018C019C600AB16D
:10200000C06C904701F044F8034800F099FDBDE82A
:102010001040FFF73DBB00BF3C4F0008006402408A
:10202000A81B0020000000000000000000000000CD
:1020300008B50C4800F0A4FD01F042F80A4B0B482B
:102040001968026C01F03D0199600AB1406C90473B
:1020500001F01EF8034800F073FDBDE80840FFF7EB
:1020600017BB00BF184F000800640240A81B0020E7
:1020700010B50D4800F084FD01F022F80B4B0C4820
:102080005968826B890D01F03D018C05DC600AB155
:10209000C06B904700F0FCFF034800F051FDBDE825
:1020A0001040FFF7F5BA00BF304F00080060024053
:1020B000A81B00200000000000000000000000003D
:1020C00010B50D4800F05CFD00F0FAFF0B4B0C481A
:1020D0005968026B090C01F03D010C04DC600AB187
:1020E000406B904700F0D4FF034800F029FDBDE8A5
:1020F0001040FFF7CDBA00BF244F00080060024037
:10210000A81B0020000000000000000000000000EC
:1021100010B50D4800F034FD00F0D2FF0B4B0C4819
:102120005968826A890901F03D018C01DC600AB1BD
:10213000C06A904700F0ACFF034800F001FDBDE825
:102140001040FFF7A5BA00BFEC4E00080060024047
:10215000A81B00200000000000000000000000009C
:1021600008B50C4800F00CFD00F0AAFF0A4B0B4824
:102170005968026A01F03D01D9600AB1406A90478E
:1021800000F086FF034800F0DBFCBDE80840FFF7E5
:102190007FBA00BF944E000800600240A81B0020D8
:1021A00010B50D4800F0ECFC00F08AFF0B4B0C481A
:1021B00019688269890D01F03D018C059C600AB1A6
:1021C000C069904700F064FF034800F0B9FCBDE827
:1021D0001040FFF75DBA00BFA84E00080060024043
:1021E000A81B00200000000000000000000000000C
:1021F00010B50D4800F0C4FC00F062FF0B4B0C481A
:1022000019680269090C01F03D010C049C600AB1D7
:102210004069904700F03CFF034800F091FCBDE8A6
:102220001040FFF735BA00BFF84E000800600240CA
:10223000A81B0020000000000000000000000000BB
:1022400010B50D4800F09CFC00F03AFF0B4B0C4819
:1022500019688268890901F03D018C019C600AB10E
:10226000C068904700F014FF034800F069FCBDE827
:102270001040FFF70DBA00BF604F00080060024039
:10228000A81B00200000000000000000000000006B
:1022900008B50C4800F074FC00F012FF0A4B0B4A22
:1022A000196801F03D01996013680BB150689847B7
:1022B00000F0EEFE034800F043FCBDE80840FFF7E5
:1022C000E7B900BF544F000800600240A81B00207F
:1022D000F8B5404D404800F053FC00F0F1FE6C6B47
:1022E0003E4AA369666946EA034323F07F4393426B
:1022F0004ED023D8073A93423ED00132934210D1B8
:102300006268EB6A22F400721B6862601A6842F02D
:1023100001021A60626842F4805262605B68012BBD
:1023200052D916F00A0F18BFA36900F0B1FE2A486F
:1023300000F006FCBDE8F840FFF7AAB9284A93422E
:102340000FD002329342ECD1EB6A1B685F6827B36F
:102350002A8C236842F0010243F4A0632A8423609C
:10236000E3E763682A6B23F4007312686360136801
:1023700043F001031360D4E72B8C1A0A0BD003F04F
:10238000010343F0F00302F0060213432361C8E7A0
:102390002B8CC3F347032361C3E7636823F4007303
:1023A0006360236843F400732360202383F3118860
:1023B00000F0B6FE05F11C00394600F051FE00F0B9
:1023C00097FE87F31188ACE7236823F480632360CA
:1023D000A7E700BF2C1C0020944F00080800030052
:1023E0008200070000000000000000000000000064
:1023F00011F00C0F10B5446B12D1016B0A68136811
:1024000023F01F0313601368DB07FCD4087A4A68C3
:102410003D2383401360636843F40073636010BD21
:10242000014800F0FDFB00BFC84E0008000000009E
:1024300011F00C0F70B5426B054629D1C06A0368D4
:10244000196821F01F011960196811F00104FBD10E
:10245000067A41683D23B3400B60536823F48053F0
:102460005360136823F480631360136843F40073AC
:102470001360202383F3118800F052FE05F11C0045
:10248000214600F0EDFD00F033FE84F3118870BDAD
:10249000014800F0C5FB00BFC84E00080000000066
:1024A0002DE9F84305460E469046994600F010FC8B
:1024B000CDB1032E17D80124B4402889A4B214EA60
:1024C000000710D105EB86030443DB682C815969B2
:1024D0002846C1F80880C1F800904F603146BDE839
:1024E000F84301F0CDBD014800F09AFBB44E00085E
:1024F00038B590F834300446062B05D8DFE803F0F1
:102500000404041B070426001C4800F089FB052373
:1025100080F83430202383F3118800F001FE00217D
:102520000B4620460A46FFF7BBFF00F0E1FD002303
:1025300083F3118838BDC3689B695B68E3B9036C9A
:1025400003B19847002384F8343038BD436D4168A7
:10255000D3F800290D6842F40012C3F80029D3F81B
:10256000002B42F40012C3F8002B0DB10621A8473E
:10257000062384F8343038BD38BD00BF704F0008E2
:102580002DE9F84305460E469046994600F0A0FB1B
:10259000CDB1032E17D80124B4406889A4B214EA3F
:1025A000000710D105EB86030443DB686C81996951
:1025B0002846C1F80880C1F800904F603146BDE858
:1025C000F84301F0B5BD014800F02AFB044F0008B4
:1025D00038B590F834300446062B05D8DFE803F010
:1025E00004071704042B32002B4800F019FB90F865
:1025F0004B1090F84A30C26B43EA0123934206D94C
:10260000C3681D8AB2FBF5F305FB132585B30323CD
:1026100084F83430202383F3118800F081FD0021F9
:102620000B4620460A46FFF7ABFF00F061FD002392
:1026300083F3118838BD036C03B19847002384F8F5
:10264000343038BD436D4168D3F800290D6842F439
:102650000012C3F80029D3F8002B42F40012C3F88B
:10266000002B0DB10621A847062384F8343038BD6D
:10267000202383F3118800F053FD204629462A4683
:102680002B46FFF70DFF00F033FD85F31188022381
:1026900084F8343038BD00BF484F00080000000007
:1026A00000EB8101F8B5CB6800221B6A80F834206A
:1026B000196842685B68836441649368044633B375
:1026C000984720B3E56B94F8443094F84B1094F895
:1026D0004A2042EA0122AA423CBFE26315461B0699
:1026E00000F18C80002D75D1052384F8343020232F
:1026F00083F3118800F014FD204629462A462B4614
:10270000FFF7CEFE00F0F4FC85F31188F8BD94F8D5
:10271000443013F0600616D0626DD2F8003961685B
:1027200043F40013C2F80039D2F8003B0D6843F4BB
:102730000013C2F8003B15B120460621A847062326
:1027400084F83430F8BD94F8455003F07F0242EA33
:102750000525B5F5407F00F01A8117D9B5F5C06F92
:1027600000F0FC8072D9B5F5106F00F0828040F661
:102770000242954200F0D580B5F5006FCCD104F14E
:102780004F0201252664A263E5639EE7022D00F057
:10279000CF8040F2BA80B5F5807F00F09880B5F523
:1027A000817FB9D194F84620002AB5D194F8482009
:1027B00012F00F0158D0636D03EB4113110600F1C5
:1027C0001381D3F8002B22F40012C3F8002B94F8E5
:1027D000443049E0042384F83430202383F3118803
:1027E00000F09EFCE36BA26B20460021FFF7C8FEC1
:1027F00000F07EFC002383F31188F8BD9DB1012316
:1028000084F83430202383F3118800F089FCE36BD3
:10281000A26B20460021FFF743FE00F069FC002375
:1028200083F31188F8BD032384F83430202383F325
:10283000118800F075FC204629462A462B46FFF7F2
:102840009FFE00F055FC85F31188F8BD40F202327E
:10285000954223D0B5F5A06F7FF45EAFB4F8442065
:10286000B2F5A06F00F0A8800025A563E56325649C
:102870002BE794F8462094F84F109142F4D0237837
:10288000042B34D002B3636884F84F201B68042201
:102890002270CBB120460221984715E094F84620DB
:1028A000002A7FF439AF94F8482012F00F01DBD0F2
:1028B000636D120603EB411300F19F80D3F8002BE8
:1028C00042F40012C3F8002B94F84430CCE794F89B
:1028D0004620012A7FF420AFB4F84C20A66322F0F2
:1028E0000202E66326643546A4F84C20EDE6202378
:1028F00083F3118800F014FC00F0EAF92378042B2C
:1029000000F084805F4800F08BF93DB9022204F1A9
:102910004C012564A163E2631546D6E6012D7FF4E0
:10292000FBAE594AA26302250022E5632264CCE68D
:1029300094F8482002F00F0117064CBF4831583177
:102940004901626D515808047FF5E7AE11F400119A
:102950002DD14E4AE5632164A263B6E6626894F81D
:10296000490094F84830556894F8471094F8462088
:1029700043EA00232046A84700283FF4CDAE436831
:102980000568E563A363266494F844309DE694F8F3
:102990004620012A7FF4C0AEB4F84C20A66342F072
:1029A0000202E66326643546A4F84C208DE6384AD8
:1029B000E5632664A26388E694F84610626D84F8A5
:1029C0004E10D2F80038606823F4FE63056843EACD
:1029D0000113C2F8003815B120460121A84703228F
:1029E00094F8443022703FE7D3F8002922F4001213
:1029F000C3F8002994F8443036E7D3F8002942F4AC
:102A00000012C3F8002994F844302DE7A06D218905
:102A100063890268E26501F0010103F00103676D5B
:102A2000D0F808E02181324626616661A6616381A3
:102A300031464FF0FF3007EB421301327245C3F8C5
:102A400000194FF00005C3F81019C3F80809C3F8BE
:102A5000001BC3F8101BC3F8080BECD94FF001138F
:102A6000C7F81C3800F044FB85F31188636884F8CC
:102A70004F501B68032121700BB12046984794F8F2
:102A80004620FFE6D44E0008A04E00086C4F000818
:102A9000A44E00080000000000000000000000003C
:102AA00010B40B4A0B48D36B4FF080441968646A2A
:102AB0005C60406860F31F2143F8101B02F504615D
:102AC0008B4228BF02F14003D3635DF8044B70478B
:102AD00020130020001000E00000000000000000B3
:102AE000FEE700BF00000000000000000000000042
:102AF0000F4B10495A688368F0B4D1F88478416864
:102B0000C668D0E90445D31ADB1BE4180268836069
:102B100045F100058B4206F1010688BF43609342F0
:102B2000C660C0E9044538BF0360F0BC704700BF11
:102B3000001000E020130020000000000000000052
:102B40000B4B10B51C8F04F00204A4B27CB92022F8
:102B500082F31188DA6B13789060032161F302032A
:102B600064F3C7031370FFF79BFF84F3118810BD54
:102B70002013002000000000000000000000000002
:102B80000B4B10B51C8F04F00204A4B27CB92022B8
:102B900082F31188DA6B13789060022161F30203EB
:102BA00064F3C7031370FFF77BFF84F3118810BD34
:102BB00020130020000000000000000000000000C2
:102BC0000C4B1A8FD20700D57047DA6B10B49C6992
:102BD0001378012060F30203137091F820009460D1
:102BE00060F3C70313704B6AD3605DF8044BFFF7C3
:102BF00057BF00BF201300200000000000000000AD
:102C0000034A516853685B1A9842FBD8704700BF6B
:102C1000001000E0000000000000000000000000C4
:102C200008B5054672B60A4C238F03F004039BB225
:102C30000BB1E562FEE7E16B0A788860042060F37F
:102C4000020263F3C7020A70FFF72AFFF1E700BF31
:102C50002013002000000000000000000000000021
:102C600008B5054B1A6B1AB95B6B002B00DD08BD6C
:102C70000248FFF7D5FF00BF201300204050000896
:102C800070B5114C0646FFF7EBFF2368A5691A687B
:102C900085F8206001215460184683F820102946E9
:102CA0002260A361FFF78CFFEFF30983EA69643BBD
:102CB0009A4205D8A0692946BDE87040FDF70EBBD1
:102CC0000248FFF7ADFF00BF201300204850000866
:102CD00008B5054B1A6B002A03DB5B6B002B00DD8C
:102CE00008BD0248FFF79CFF201300205850000841
:102CF0002DE9F8460446FFF7EBFF34B161684B0756
:102D000003D1A36813F0070502D02548FFF788FF19
:102D10009942FAD25A1AB2F5A87FF6D3E068FF2892
:102D2000F3D8D4F810C0BCF1000FEED01D4A66698C
:102D3000246803F8275C4FF0020E012703F8267C75
:102D400003F828EC43F8686C566943F8304C43F8B4
:102D50002C1CA3F11C07A3F14801DFF84C9043F8A9
:102D6000400CA3F1AC0AA3F1200443F80C0C43F887
:102D70006CCC43F8105C43F8145C43F8382C43F8EF
:102D8000346C43F83CAC43F84C9C084631615161CB
:102D900043F8204C43F81C7C43F8187CBDE8F886C7
:102DA000C44F000820130020F502000800000000B6
:102DB0002DE9F0470D4686B08046FFF751FF6B1CAA
:102DC00053D04E4FBC69FFF783FF002D4AD0B94660
:102DD000012D59F81C6F4A4A05944FF0804308BFF3
:102DE00002254E455C6A04926CD0B86AB368241A16
:102DF0002C1943D29C4245D39C4204D93668E41A2C
:102E0000B368A342FAD3736802930DF1040A0196E2
:102E1000C3F800A0C6F804A00394B1684FF0FF33D4
:102E2000091BB1607B624046FFF72AFFFFF750FFA6
:102E3000049BF3B1FFF74CFFFB693049534526D0A3
:102E4000029A019B1360019B00214B455A6004913B
:102E50000FD09968039A0A449A60BB69586A06B011
:102E6000BDE8F0872748FFF7DBFE4046FFF708FF85
:102E7000224FBB69586A06B0BDE8F0873668E41A8D
:102E8000B368B9E72044FEF7F3FBB368B4E7019AEF
:102E9000CA6100234A45C2F80490049329D00398DC
:102EA0009368896A03444FF080409360406A421AF5
:102EB0009342DED99B1A012B98BF02231844FEF7D8
:102EC000D7FBD6E7BC620395DA6801960DF1040AD8
:102ED00012F002020296C7F81CA0C7F820A005D184
:102EE0002C4402215C631A61D9609CE70648FFF715
:102EF00097FE4FF08042D360BBE700BF2013002055
:102F00005131000834500008FC4F00080000000058
:102F100010B50446FFF7DCFEA4B194F820308BB165
:102F20000F2B0FD00022A168084B84F820201B68CB
:102F30009A688A42FBD85A6862602360204614600F
:102F40005C6010BD0248FFF76BFE00BF201300203D
:102F5000DC4F00080000000000000000000000003E
:102F600038B5104C2368A0691A68226001215460AA
:102F700083F82010A361FFF7CBFF01460546A06947
:102F8000FFF71EFEEFF30983EA69643B9A4205D816
:102F9000A0692946BDE83840FDF7A0B90248FFF70F
:102FA0003FFE00BF20130020485000080000000032
:102FB00038B5144CFFF754FEFFF78AFE2368A0696A
:102FC00099688268914200D838BD1A682260012150
:102FD000546083F82010A361FFF79AFF014605466D
:102FE000A069FFF7EDFDEFF30983EA69643B9A42BC
:102FF00005D8A0692946BDE83840FDF76FB90248F9
:10300000FFF70EFE201300204850000800000000CB
:1030100010B50446FFF75CFEA4B194F820308BB1E4
:103020000F2B0FD00022A168084B84F820201B68CA
:103030009A688A42FBD25A68626023602046146014
:103040005C6010BD0248FFF7EBFD00BF20130020BD
:10305000785100080000000000000000000000009F
:1030600008B5036873B193F82020032A02D00648FC
:10307000FFF7D6FD0022026059621846BDE80840FD
:10308000FFF7C6BF08BD00BF505100080000000098
:1030900008B5202383F31188064A136B002B01DD4A
:1030A000516B11B10448FFF7BBFD013B136381F382
:1030B000118808BD201300206050000800000000A7
:1030C00008B5202383F31188064A136B002B01DB1C
:1030D000516B11B10448FFF7A3FD0133136381F372
:1030E000118808BD2013002068500008000000006F
:1030F00008B5064B1A6B002A05DD5A6B002A02DD63
:1031000000225A6308BD0248FFF78AFD2013002001
:1031100070500008000000000000000000000000E7
:1031200008B5064B1A6B002A01DD5A6B12B1044830
:10313000FFF776FD01225A6308BD00BF201300206F
:1031400078500008000000000000000000000000AF
:1031500038B50446202383F31188FFF7E1FF94F884
:103160002030072B10D8DFE803F0150F0F1B0A04DF
:103170000F0A656AFFF7ACFDAB680133AB6094E8FA
:103180000C001A60226853604FF0FF3363622046E0
:10319000FFF73EFFFFF7ACFF002383F3118838BD34
:1031A000636A00221A604FF0FF3363622046FFF724
:1031B0002FFFEFE70000000000000000000000000B
:1031C00008B5054B1A6B22B9596B002901DD5A630A
:1031D00008BD0248FFF724FD20130020805000089E
:1031E00008B5FFF7EDFF084B1A689A4204D09969B9
:1031F00093688A689A4203D3002383F3118808BD39
:103200000248FFF70DFD00BF2013002028510008E1
:1032100008B5054B1A6B0AB95A6B12B10348FFF790
:10322000FFFC01225A6308BD2013002088500008CB
:103230002DE9F843284E0546B46948B1202383F3AD
:103240001188FFF7E5FFA36B13B19F68A74202D077
:103250002248FFF7E5FC9D42FAD1EC68BC63FFF71A
:10326000FFFCD5F800904D4533D0D7F83C805CB1D9
:10327000FFF7F6FC23689C4203D09B68984538BF53
:103280009846E468002CF3D1D9F80030D9F83820FA
:10329000C7F8088048462B605D60EA60C5F8089072
:1032A000C9F83850FFF7B4FEFFF782FEFFF788FF3A
:1032B0003368094AB34204D092699B6892689A4283
:1032C00004D3002383F31188BDE8F8830448FFF793
:1032D000A7FC0023AB60E9E720130020285000087A
:1032E000B84F0008000000000000000000000000CF
:1032F000F8B50546202383F31188434EFFF788FF76
:10330000B469FFF7ADFC1DB3A86800286DD0A268B2
:1033100083689A4207D990F820308260062B39D012
:10332000072B23D0BBB12B4603E09968A2689142DA
:1033300002D31B689D42F8D15A6862602360062060
:1033400014605C606562FFF79BFCAB689C423AD0FE
:103350002E48FFF765FC90E80C00012180F8201052
:103360001A6002685360FFF753FEDCE790E80A003A
:103370001960476A01684B603B4602E099689142D8
:1033800002D31B689F42F9D15A6842600360106003
:103390005860C8E790E80A001960476A01684B6006
:1033A0003B4602E09968914202D31B689F42F9D1E3
:1033B0005A684260036010605860B868A268836809
:1033C0009A42A8D8AFE7A36B9D42C1D1FFF7F8FEA0
:1033D00033680D4AB34204D092699B6892689A425E
:1033E0000ED3002383F31188F8BDA36BEB60AC60B0
:1033F000A563FFF7E5FE3368034AB342ECD1F0E77B
:103400000348FFF70DFC00BF201300206C5100089B
:10341000B84F00080000000000000000000000009D
:103420002DE9F04F202383B0074683F31188864CA3
:10343000FFF7EEFE256995F82230013385F822303A
:10344000FFF7BEFE2368A34204D0A2699B6892687E
:103450009A4249D3002686F31188DFF8EC914FF0A9
:103460002008EB69BB4200F0CB8088F31188FFF79E
:10347000CFFED5F810A0A24500F0C9809AF82230FE
:10348000FF2B4AD001338AF82230FFF799FE2268D9
:10349000A24205D0D9F8183092689B68934223D392
:1034A00086F3118888F31188FFF7B2FE95F8223071
:1034B00083B3013B85F822302B6A03F0FF130F2BF7
:1034C00015D0FFF77DFE2368A34205D0D9F8182058
:1034D0009B6892689A421AD386F31188BAF1000F5A
:1034E00000F098805546BCE75848FFF799FB6A6999
:1034F0002B6913612B695A61FFF762FE2268A242B1
:103500000ED0D9F8183092689B68934208D2504880
:10351000FFF786FB4F48FFF783FB4F48FFF780FB21
:1035200086F3118895F8213003F00303012B22D094
:10353000022BD3D1D5F840B0ED6988F31188FFF79D
:1035400067FEFFF7C5FBBBF1000F65D0002D63D010
:10355000DBF800302B60CBF80050FFF731FE23681A
:10356000A342B9D0D9F818209B6892689A42B3D286
:103570003A48FFF755FBD5F81CB0BBF1000F43D01C
:103580001BF0070F40D11BE90C000733DB0802F1E9
:10359000100502F1080C4BF8043C2846CDF804C095
:1035A000FFF7A6FEDDF804C0ABF1080163469942BF
:1035B00005D35A68013203EBC202914224D39C45E1
:1035C0001A6801D0994219D90AB1914216D25BF812
:1035D000040C4BF8082C196000F1010C5BF8082C66
:1035E00001EBCC0E964523D05868421C03EBC20277
:1035F000914214D02846FFF71BFE6FE71346D6E72B
:10360000284603B0BDE8F08F1548FFF709FB4FF0DF
:10361000000A3AE75046F4E71248FFF701FB5BF86F
:10362000041C5BF8082C1A60421801325A60E1E76A
:10363000DEF804E051F83C204BF8082C0EEB0002B9
:1036400001324BF8042CCFE7201300209C500008D7
:1036500028510008345100080C500008605100083F
:103660001C500008F04F000800000000000000009F
:1036700010B52023044683F31188FFF7C9FDACB1D0
:1036800021460820FFF794FBFFF79AFD094B1A68C3
:103690009A4204D0996993688A689A4203D30023B6
:1036A00083F3118810BD0448FFF7BAFA0348FFF707
:1036B000B7FA00BF201300202851000890500008DE
:1036C00008B50546202383F31188FFF7A1FD104BB1
:1036D0009C69A06A656204F12805A84206D00368C7
:1036E000A362FFF795FCA06AA842F8D194F82230B3
:1036F00043B994F821309B0704D1636922691A61A8
:10370000226953610F20FFF7BBFA0248FFF788FADE
:1037100020130020445100080000000000000000B9
:10372000FEE700BF000000000000000000000000F5
:10373000F0B4114E002506F1800796E81A00A34266
:103740000DD204391A4651F8040F42F8040BA24274
:10375000F9D3DA43144424F0030404342344F26814
:10376000934203D243F8045B9342FBD31036BE422C
:10377000E3D3F0BC704700BFA85000080000000071
:10378000FEE700BF00000000000000000000000095
:10379000704700BF000000000000000000000000B3
:1037A000704700BF000000000000000000000000A3
:1037B000022906D0032906D00129064818BF002097
:1037C000704705487047032A9ABF044B03EBC200B9
:1037D000002070476C52000888520008D45200083C
:1037E0000F4B104A9B69DFF844800F4D80B548F2BB
:1037F00000069A614FF4004798F800406E8340F647
:10380000C41341F28832042C0CBF1C4614462046D7
:10381000FFF72EFF20462F83FFF72AFFECE700BFBC
:103820002013002090520008000C0240E0100020FD
:1038300030B5202383B083F31188254CFFF770FC4B
:10384000D4F88C2413681978042906D0FFF750FCAB
:10385000002383F3118803B030BD217A0229F5D10A
:1038600011791A8901238B401342EFD1FFF730FA07
:10387000636DA26D9342E9D1226D002AE6D0E26E1B
:10388000002AE3D0043AD21AE0D01A60226EE06D2A
:10389000216D0F4D13448342636501F1FF3128BF51
:1038A000A36E216528BF636505F14400002301A9CB
:1038B000E366FDF79DFE024638B1D5F88C14019BF6
:1038C00008680979FEF7ECFDC0E70248FFF7A8F9A0
:1038D000CC08002058530008000000000000000041
:1038E00038B5052916D8DFE801F0501516505003F9
:1038F000202383F31188FFF713FC32480121FDF7E1
:10390000FFFE314B00241C7583F84C40FFF7F0FBA1
:1039100084F3118838BD0546202383F31188FFF70F
:10392000FFFB2A4C2A4A28460121FDF759FD0221B6
:10393000284A2846FDF754FD0025FFF7C9F9236BF7
:10394000236204F10C00E361A5616563A56300F0E7
:10395000B7FD2575FFF7BCF9A36E626E2265A365FE
:10396000636504F14400E566256700F0A9FD0121C7
:10397000201D84F84C50FDF7C3FE2046FDF708FEDD
:10398000FFF7B6FB85F3118838BD202383F3118838
:103990000D4CFFF7C5FB0221201DFDF7B1FE0125EF
:1039A00004F10C00257500F08BFD04F1440084F84F
:1039B0004C5000F085FDFFF79BFB002383F311883B
:1039C00038BD00BFD0080020CC080020CC08002063
:1039D00034530008045300080000000000000000F9
:1039E0002DE9F0474FF080472F48FFF7C9F8FFF760
:1039F00067FB3B699B0708D4FFF74AFB2A48FFF7A0
:103A00009FF8BDE8F047FDF743BE00263E614FF04A
:103A1000200888F31188254DFFF782FBFFF758F93E
:103A2000FFF756F9EC69786AA96AA368421A9A42C4
:103A300005F11C091CD32268D4F80CA00B444A459C
:103A4000AB62C2F80490EA61E66008BFFE60FFF76F
:103A50004FFB86F311882069D04788F31188FFF760
:103A60005FFBEC69786AA96AA368421A9342E2D9BB
:103A70004C4510D00B441B1A012B98BF02231C1875
:103A80002046FDF7F5FD4FF08043A96A5A6A631A94
:103A9000521A9A4205D8FFF72BFB002383F31188B3
:103AA000AAE70348FFF7BCF898520008201300204B
:103AB0002853000800000000000000000000000083
:103AC000F8B53A4C3A48636B5E69FFF759F8B5B2FE
:103AD000FFF7F6FA276B616B3A6805F45F43DB4347
:103AE0004B61136823F01F0313601368D807FCD4DD
:103AF00097F808E0E06A7F6802683D2303FA0EF356
:103B00003B60136823F01F031360136813F0010375
:103B1000FBD1077A40683D22BA400260EA0548BFFF
:103B20000123AF05A36044BF43F00203A36068050F
:103B30000AD54A6822F400724A600A6843F0040316
:103B400042F400720A60A3602A0544BF43F00803F0
:103B5000A3606F0444BF43F02003A360E80414D5BE
:103B600043F010033104A3601CD4202383F3118895
:103B7000FFF7D6FA0F486FF00101FFF771FAFFF770
:103B8000B7FA002383F3118803E032040AD4002B30
:103B9000EBD1FFF77DFA0648FEF7D2FFBDE8F8400B
:103BA000FDF776BD43F04003A360DEE72C1C002048
:103BB00064530008481C00200000000000000000C2
:103BC0002DE9F047914E9248FEF7DAFFFFF778FAB9
:103BD000756D6B69AF691F4017F480596F6140F0D4
:103BE0001B81002FC0F2F5803B0500F1E280BC0490
:103BF0000CD5D5F8083813F0060FEB6823F4705392
:103C00000CBF43F4105343F4A053EB6038072ED499
:103C1000FA0234D4BB0200F1A080FE0600F18A80D3
:103C2000D5F818483D030BD5E00300F18F81A103BF
:103C300000F18881620300F18181230300F16B812F
:103C40007F030BD5E60700F17581A50700F16E81B2
:103C5000600700F16781210700F15981FFF718FA29
:103C60006B48FEF76DFFBDE8F047FDF711BD7368C7
:103C7000DB68002BCCD065489847FA02CAD5D6F845
:103C80005480002408E0B36D604A9B680134E4B2BC
:103C90009C42A14600F2618108EB4412D2F800393F
:103CA00003F44023B3F5802FEDD1D2F80039002B77
:103CB000E9DAD2F8003943F09043C2F80039D2F87B
:103CC0000039002BFBDB4FEA8919726D49F02003A4
:103CD000136113699906FCD41220FEF791FF06EBDD
:103CE00084034FF00109DA683389926809FA04F90C
:103CF0006FEA090A0AEA0303338112B143482146F5
:103D00009047202383F31188FFF70AFAD8F8342864
:103D1000336E40480AEA020249EA0303C8F834282D
:103D200000213366FFF79CF9FFF7E2F9002383F3E4
:103D30001188A8E7202383F31188FFF7F1F9AB6915
:103D4000344823F01003AB610021FFF789F9FFF736
:103D5000CFF9002383F3118862E7D6F8548000245A
:103D60004FF0010906E0B36D01349B68E4B29C4258
:103D70003FF653AF08EB4412D2F8003B03F4402364
:103D8000B3F5802FEFD1D2F8003B002BEBDA06EB36
:103D900084037289D96809FA04F3D1F80CC022EAC5
:103DA00003037381BCF1000FDDD018482146E047C2
:103DB000D9E7736832781B6886F850200021052205
:103DC00031663270002B3FF412AF1048042198473F
:103DD0000DE7D5F8003E9A0705D0D5F8003E23F050
:103DE0000303C5F8003E7268D5F80438126896F8E7
:103DF0005010317043F00103C5F80438002A3FF435
:103E0000F3AE024805219047EEE600BFE010002027
:103E1000A45200084411002000230221202233660E
:103E2000A6F84C3086F84E3086F84F30F360336198
:103E30007361B36186F834303381738131702A61E4
:103E40002B6913F02004FBD11220FEF7D9FED6F81F
:103E500058E0C5F834484FF00112DEF80870C5F894
:103E60001C2823464FF000604FF0FF3105EB431252
:103E70000133BB42C2F80009C2F8000BC2F80819AE
:103E8000C2F8081BF2D9DEF80030F365DEF8002036
:103E9000736D6A6210221A61196911F01004FBD166
:103EA0001220FEF7ADFED5F80038F26DD6F858E0D6
:103EB0002D4FDFF8C0C02D4823F4FE63C5F800384D
:103EC000AB6943F4402343F0100302F11001AB61EE
:103ED000F165DEF804E0C6F80CC009237145C5F8A9
:103EE0001038C5F81438C5F8104BC5F8007BC5F874
:103EF0001049C5F800792DD843681B6842F4801238
:103F0000AA62002B3FF4AAAE21469847A6E60320FA
:103F100000F00EFCA2E6032000F0A2FB7F037FF579
:103F20009DAE8FE6022000F003FC94E6012000F035
:103F3000FFFB8DE6002000F0FBFB86E6022000F090
:103F40008FFB7AE6012000F08BFB73E6002000F087
:103F500087FB6CE60648FEF763FEBB027FF55DAEAD
:103F6000D2F85480FBE600BF40800010E010002033
:103F7000F4520008B05200080000000000000000E9
:103F80003449354B4FF080504FF4404208641A607A
:103F90000B6843F001030B600A682E4B9007FBD5BA
:103FA0009A6822F003029A609A689A6019468B68B0
:103FB000284A13F00C03FAD1116801F0F9011160DD
:103FC0009360136843F4803313601168214B8903B5
:103FD000FBD55A6F42F001025A675A6F1D4990078C
:103FE000FBD51E4B4B600B681B4A43F080730B6084
:103FF00053685904FCD517490B68164A9B01FBD539
:10400000174B184991601A68174B9A4217D0174BF3
:1040100040F205721A600F4A936843F002039360FE
:1040200093680C4903F00C03082BF9D14B6C43F453
:1040300080434B644B6E43F480434B6670470C4A9D
:104040000C4B12689A42E2D1084B40F205121A60FA
:10405000E1E700BF0038024000700040085440070C
:10406000002004E00094883811640020003C0240E5
:1040700000ED00E041C20F41000000000000000020
:1040800000EB8103F0B4DC6865692B68EB60F3B981
:10409000406D00EB41134FF40022C3F81029236850
:1040A00003F00303012B26D00BB200EB43130124D2
:1040B000D3F8002942F00442C3F80029D0F834288C
:1040C00004FA01F31343C0F83438F0BC704719B355
:1040D0005D1E43F00052406D268A00EB4117AB197C
:1040E000B3FBF6F342EAC343C7F81039236803F081
:1040F0000303012BD8D1D0F8083813F4807F0BB21A
:1041000000EB4314D4F8002914BF42F0805242F06F
:104110000052C4F80029C8E7402BD9D940232B60AE
:10412000014A3F25D7E700BF400000200000000003
:1041300000EB810330B4DC68A2691368D36009B96D
:10414000402B22D8013B628A406D24681344B3FBA4
:10415000F2F302FB03F20332DB0422F0030243F02A
:10416000C043134300EB411504F00302012AC5F8D4
:10417000103B0ED009B200EB411130BCD1F8003B2E
:1041800043F00443C1F8003B7047402313603F23D2
:10419000D9E709B2D0F8083800EB411213F4807F58
:1041A000D2F8003B14BF43F0805343F00053C2F8F1
:1041B000003BE0E7000000000000000000000000FD
:1041C0002DE98048044683B02023456D83F3118890
:1041D000FFF71EF8DFF84C824FF0000A2378012B1E
:1041E00004D0236EA3B96B69DB0611D4AB69616E91
:1041F000D8F8182043F01003AB6111B18848FEF7DE
:104200000FFD2346032043F8642F5362FEF738FD69
:10421000FEF7D6FFD8F80030824A434504D09269B1
:104220009B6892689A4269D38AF3118800266B6969
:10423000DB0650D5636D1A6A02F4F011B1F5802FD8
:104240001ED0B1F5402FF2D102F00F0104EB810135
:10425000C2F30A12C9680F6A002AE8D0002103F5E8
:1042600080500B4602E001339342E0D013F0030F7D
:1042700008BF0168072BF6D83970090A0137F2E741
:1042800002F00F0E04EB8E0EC2F30A12DEF80C10D1
:104290008F6997E80310C1EB00096AB3002103F5A9
:1042A000805760460B4613F0030F08BF39689945E5
:1042B00002D90170090A013001339342F3D1DEF8CB
:1042C0000C309F69B86879686B691044DB060A4452
:1042D000B8607A60AED40127236EB7401F4210D178
:1042E000A36D01369B68F6B29E42A0D9202383F3CA
:1042F0001188FEF78DFF71E76046E5E74A48FEF753
:104300008FFC202383F31188FEF782FFAA68236EB7
:1043100022F0010223EA0703AA602366FEF750FF9A
:10432000D8F800303F4A434504D092699B689268B0
:104330009A42E3D38AF3118804EB8603D868D0F855
:1043400014E0DEF80410DEF800308B4241D9626DD3
:10435000B0F8109002EB4610591AD0F818394945B8
:1043600028BF49469BB2B1EB830F56D8DEF808C090
:1043700059B3731C0190A34602EB033062461368E5
:104380000360042907D90B469446043B5CF8044FAC
:104390000460042BF9D8DEF80430DEF800C00A44CB
:1043A00019448C45CEF80820CEF8041010D9019B92
:1043B000C1EB0C01D3F81839494528BF49469BB2D7
:1043C000B1EB830F28D80029D9D11848FEF728FC73
:1043D0005C464FF00109202383F31188FEF718FF94
:1043E000AB6843F00103AB60B9F1000F04D1D5F81D
:1043F00034381F43C5F83478FEF7E2FED8F80030B1
:10440000084A434505D092699B6892689A42FFF436
:1044100075AF8AF3118863E75C464FF00009DAE76D
:104420003452000820130020605200084452000853
:1044300070B51A4D0446FEF713FC2B68A869AB4211
:104440002AD09A688368934220D3A26800219A42B6
:10445000616216D9FEF7DCFD01230146064684F8A9
:1044600020302046AC61FEF7ABFBEFF30983F26925
:10447000643B9A420DD820463146BDE87040FBF7B8
:104480002DBF2046BDE87040FEF7C2BD0448FEF7D0
:10449000C7FB0448FEF7C4FB8368D6E7201300205F
:1044A000B45300084850000800000000000000005D
:1044B000014B5B6883607047001000E00000000063
:1044C00038B5036898420AD01A68026093F8201041
:1044D00050600429044603D00A48FEF7A1FB38BD0A
:1044E0006FF001055D621846FEF792FD23689C425D
:1044F000F5D01A68226093F8201054600429EBD19B
:10450000F0E700BFC45300080000000000000000F6
:10451000F8B500284FD0294E447A3268012303FAB7
:1045200004F7174243D1264D264B45F834103A4341
:1045300005EBC40412F0FF0F3260636004D0224C1C
:10454000236B43F40013236312F47F4F29D10268D5
:10455000136823F01F031360136813F00103FBD1EA
:10456000057A46683D24AC402125346013605561CE
:10457000F9B1817A4A09920001F1604402F1604286
:1045800002F5614204F56144012001F01F0100FAC7
:1045900001F1502584F80053C2F8801111601846CB
:1045A000F8BD094A136B43F480031363CFE7184641
:1045B000F8BD0846F8BD0548FEF732FB281C002070
:1045C000A81B00202C1C0020003802407C5300084F
:1045D0002DE9F04F0125214CA946002302264FF07A
:1045E00004084FF00F0C4FF0030E0EE0226A22EA8F
:1045F0000B0B4BEA0A022262226811403143216010
:10460000400828D06D00B60001335A000EFA02F1BE
:1046100003F00702920010F0010F09FA03F76FEAA6
:10462000010108FA02FA0CFA02FBE9D0626822EAF8
:1046300007022A436260A2680A40A260E268072B70
:1046400002EA0102E260D1D9626A22EA0B0B4BEA6C
:104650000A026262D0E7BDE8F08F00BF00040240AA
:104660002DE9F0412D4E776D07EB40130546D3F849
:10467000084BC3F8084B200703D5D7F8143819079F
:1046800041D4E2072BD5D7F81438DB0727D545BB33
:1046900096F83430002B3ED0DFF88480D8F8041030
:1046A0008C694B8A6768B7FBF3F203FB1273DBB9C3
:1046B0002268E3689A4217D29B1A84E828002023D4
:1046C00083F31188FEF72CFDA8F108002946FFF7B7
:1046D0002FFDFEF70DFD85F31188BDE8F081BDE8E3
:1046E000F08106EB8503D9687289CC680123AB4061
:1046F00022EA03037381002CF1D0294623460748A0
:10470000BDE8F041184706EB85033046DB682946D3
:104710005B689847B5E7BDE8F08100BFE010002076
:10472000E810002000000000000000000000000071
:104730002DE9F0412D4E756D05EB40130746D3F87A
:104740000849C3F80849E10703D5D5F81038DA0756
:1047500009D4230605D50124D5F83438BC401C42C1
:1047600018D1BDE8F08106EB8003D9684B69186861
:10477000DA68904227D33289D1F808C00123BB40C0
:1047800022EA03033381BCF1000FE2D03046394600
:10479000E047DEE7202383F31188FEF7C1FCD5F85C
:1047A0003428336E124822EA0402C5F834281C4328
:1047B00000213466FEF754FCFEF79AFC002383F3D5
:1047C0001188BDE8F081121A4FF0000883E8040157
:1047D000202383F31188FEF7A3FC30463946FFF708
:1047E0004FFCFEF785FC88F31188B2E7E01000204B
:1047F0004411002000000000000000000000000044
:10480000136830B45D1C0C121560C45413685C1C32
:104810001460C15430BC704700000000000000006C
:104820002DE9F04784B048B142B139B10C9C44B98C
:104830000D9C1CB14E4C2578022D05D04D48FEF73D
:10484000EFF9002BF4D1F9E78DE80F00202585F36F
:104850001188FEF7DDFC0098474D40000027032635
:104860002084A7602670676BFEF7AAFC286801A960
:10487000A8420EC904D0AE698068B66886423CD3AF
:10488000002080F31188266BE06AD6F800E000680B
:10489000A66AD4F824C0CEF80060CEF80C104FF011
:1048A0008046CEF80420C0F800C0C3600C9B436073
:1048B000D6F82490DFF8C0A04FF0200888F31188C4
:1048C000FEF7A6FCBB69990702D43B689A052DD573
:1048D000736AC9EB0303B3F5FA7F11D2FEF770FCDC
:1048E0002B68AB4205D0DAF818209B6892689A4290
:1048F00003D3002383F31188E0E72048FEF790F903
:10490000052323704FF0FF36FEF75AFC2B681A4A36
:10491000AB4204D092699B6892689A4216D30023F6
:1049200083F31188304604B0BDE8F0877B68E16905
:10493000AA69DFF83C8043F400737B603B6843F472
:1049400080733B6029B10E48FEF76AF90D48FEF707
:1049500067F94346032043F81C2F0D995362FEF775
:1049600027FA431C0646CBD0022388F80030CBE759
:104970002C1C0020D853000820130020705300087E
:104980009C53000890530008000000000000000045
:1049900070B594B014AC104D137804F8401D064661
:1049A00028468DF81130FEF7A3FC00224FF0FF33AC
:1049B00021468DE80C003046022203ABFFF730FFA2
:1049C00004462846FEF734FCA01C012894BF0020B2
:1049D000012014B070BD00BF381C00200000000092
:1049E00070B584B0402A8DF80F1002D9002004B0B1
:1049F00070BD06460D4814461D46FEF779FC42F28E
:104A0000107200942B4601920DF10F0101223046E5
:104A1000FFF706FF04460548FEF70AFCA01C012824
:104A200094BF0020012004B070BD00BF381C0020DE
:104A30002DE9F04182B002AC002504F8025D174672
:104A400098460122234606460D469DF82040FFF772
:104A5000C7FFC8B10121C8EB07070F4401FA08F1ED
:104A60009DF80620BC400139E3B201FA07F4234067
:104A700022EA040402AA1C4302F8014D30462946EA
:104A80008DF80640FFF784FF02B0BDE8F08100BF5B
:104A9000F0B583B002AC002504F8025D16461F464F
:104AA0000122234605460C46FFF79AFF01239DF895
:104AB0000620B34067B922EA030302AA284602F897
:104AC000013D21468DF80630FFF762FF03B0F0BDCF
:104AD0001343DBB2F1E700BF70B4840746D0541E25
:104AE000002A41D0CDB2034602E0621EE4B3144670
:104AF00003F8015B9A07F8D1032C2ED9CDB245EA11
:104B000005250F2C45EA054519D903F11002264663
:104B1000103E0F2E42F8105C42F80C5C42F8085C24
:104B200042F8045C02F11002F2D8A4F1100222F063
:104B30000F0204F00F041032032C13440DD91E464B
:104B40002246043A032A46F8045BFAD8221F22F0D0
:104B500003020432134404F003042CB1C9B21C4410
:104B600003F8011BA342FBD170BC704714460346F7
:044B7000C2E700BFD9
:104B74006932635F6C6C645F73746172740000000B
:104B840001000000801A060002000000EC4C00083E
:104B9400380F00209810002001000000E12A0008CE
:104BA40000000000A11A0008C11C0008511B0008E5
:104BB400711D0008411B0008611D0008911A0008BE
:104BC400B11C0008757362537461727400000000B4
:104BD4006368537973556E6C6F636B00E01000204B
:104BE40001010200106002400860024000000B0056
:104BF400286002400860024006010C004060024048
:104C04000860024010020D00586002400860024033
:104C140016030E00706002400C60024000040F0096
:104C2400886002400C60024006051000A06002404B
:104C34000C60024010061100B86002400C60024093
:104C440016072F0010640240086402400008380070
:104C540028640240086402400609390040640240A6
:104C640008640240100A3A00586402400864024092
:104C7400160B3B00706402400C640240000C3C00C4
:104C8400886402400C640240060D4400A0640240A3
:104C94000C640240100E4500B86402400C640240EB
:104CA400160F4600E1380008B13700081112000859
:104CB400313800086D61696E001600200404440850
:104CC4000C1014181C20212200000000535623331A
:104CD400000000007573625F70756D700000000065
:104CE4006E6F6E616D65000069646C6500000000A4
:104CF4008000000040010000030000006368546865
:104D040064437265617465006368546864437265E2
:104D1400617465537461746963000000693263539C
:104D240074617274000000006368537973556E6C8B
:104D34006F636B006932635F6C6C645F7365745F8F
:104D4400636C6F636B0000007364755374617274F9
:104D5400000000006962715265616454696D656F99
:104D6400757400006F6271577269746554696D657A
:104D74006F7574006368436F7265416C6C6F634157
:104D84006C69676E65644900757362496E69744540
:104D94006E64706F696E7449000000006368457644
:104DA4007442726F616463617374466C61677349C2
:104DB400000000006F627152656C65617365456D3A
:104DC4007074794275666665724900006962715053
:104DD4006F737446756C6C42756666657249000043
:104DE4007374536574416C61726D00006368537928
:104DF40073556E6C6F636B006F6271476574456DBC
:104E040070747942756666657254696D656F757400
:104E14005300000069627147657446756C6C427595
:104E24006666657254696D656F75745300000000A1
:104E340063684576745369676E616C4900000000CD
:104E440069627152656C65617365456D7074794210
:104E540075666665725300006F6271506F737446B5
:104E6400756C6C42756666657253000063685379AD
:104E740073556E6C6F636B00566563746F72313576
:104E840034000000566563746F72313538000000D9
:104E9400566563746F723743000000000000000021
:104EA40001000000566563746F723738000000001B
:104EB40075736253746172745472616E736D697444
:104EC40049000000444D41206661696C75726500BB
:104ED40075736244697361626C65456E64706F6971
:104EE4006E74734900000000566563746F72383045
:104EF40000000000566563746F72373400000000D0
:104F04007573625374617274526563656976654939
:104F140000000000566563746F7231323000000087
:104F2400566563746F72383400000000566563740C
:104F34006F72464300000000566563746F7231322D
:104F4400340000005F7573625F657030696E000045
:104F5400566563746F7236430000000056656374CF
:104F64006F72373000000000000000005F7573624C
:104F74005F6570306F757400566563746F7231329B
:104F840038000000566563746F72313243000000CC
:104F9400566563746F724243000000005665637483
:104FA4006F72313330000000566563746F723135AF
:104FB400300000006368537973556E6C6F636B0047
:104FC400636854686443726561746553757370658E
:104FD4006E646564490000006368536368526561E8
:104FE4006479416865616449000000006368506F3A
:104FF4006F6C4672656549007374537461727441D1
:105004006C61726D0000000063685265674E6578DC
:1050140074546872656164006368486561704672BF
:105024006565000063684D7478556E6C6F636B0042
:1050340063685654446F53657449000053562331D2
:1050440031000000737461636B206F766572666C67
:105054006F77000053562331300000005356233934
:105064000000000053562338000000005356233735
:105074000000000053562336000000005356233529
:105084000000000053562334000000006368546895
:1050940064536C65657053006368537973556E6C23
:1050A4006F636B00FC530008641C0020641C002028
:1050B400641C0020FC5300080000002000000020B5
:1050C40000000020FC53000800C0012000C00120A3
:1050D40000C00120FC530008000000000000000094
:1050E40000000000FC530008000000100000001045
:1050F40000000010FC530008004002400040024041
:1051040000400240FC5300080000000000000000C2
:1051140000000000FC530008000000000000000034
:10512400000000006368537973556E6C6F636B0005
:10513400636854686452656C6561736500000000BF
:1051440063685468644578697453000063685468FC
:1051540064526573756D6549000000006368537996
:1051640073556E6C6F636B0063684D74784C6F633A
:105174006B53000063685363685265616479490046
:1051840009024300020100C03209040000010202C6
:105194000100052400100105240100010424020279
:1051A4000524060001070582030800FF0904010025
:1051B400020A000000070501024000000705810201
:1051C400400000002603530054004D0069006300B2
:1051D40072006F0065006C0065006300740072006B
:1051E4006F006E0069006300730000003803430021
:1051F40068006900620069004F0053002F005200EC
:1052040054002000560069007200740075006100AB
:105214006C00200043004F004D00200050006F0040
:1052240072007400080334003000300004030904E1
:10523400636854686453757370656E64530000004A
:105244006F74675F6669666F5F77726974655F66BE
:10525400726F6D5F6275666665720000636853798C
:1052640073556E6C6F636B0012000000745200087B
:1052740012011001020000408304405700020102A1
:10528400030100004300000084510008626C696E51
:105294006B657200566563746F72423000000000E3
:1052A400566563746F7231344300000000000000DF
:1052B400A1260008D1250008F12400084000400080
:1052C400981000209810002001000000B810002061
:1052D400040000003052000826000000C8510008F5
:1052E40038000000F05100080800000028520008AF
:1052F4006F74675F72616D5F616C6C6F6300000057
:10530400030000000000000001120008000000007B
:1053140010000000C0100020000000000100000088
:105324000000000063685654446F5469636B49007D
:10533400020000000000000051180008A117000836
:1053440040004000D0100020A810002002000000FF
:1053540000000000736475534F46486F6F6B49003B
:10536400566563746F7243300000000063685379BC
:1053740073556E6C6F636B00646D61537472656119
:105384006D416C6C6F6361746500000063685379F0
:1053940073556E6C6F636B00636854686453757304
:1053A40070656E6454696D656F7574530000000018
:1053B400636853636857616B657570530000000040
:1053C4006368546864446F446571756575654E65BA
:1053D400787449006932634D617374657254726103
:1053E4006E736D697454696D656F757400000000A7
:0853F400009600000000080013
:04000005080001C12D
:00000001FF
